:020000040800F2
:1000000040050020A9010008EF1C00085F18000847
:10001000ED1C00081B09000831200008000000004A
:10002000000000000000000000000000F31C0008B9
:100030001D09000800000000F11C0008F51C000864
:10004000C3010008C3010008C3010008C301000880
:10005000C3010008C3010008C3010008C301000870
:10006000C3010008C3010008C3010008C301000860
:10007000C3010008C3010008C3010008C301000850
:10008000C3010008C3010008C3010008000000000C
:10009000000000000000000000000000C301000894
:1000A0009D1D0008C3010008C3010008C30100082A
:1000B000C3010008C3010008C3010008C301000810
:1000C000C3010008C3010008C3010008C301000800
:1000D000C3010008C3010008C301000800000000BC
:1000E000C3010008C3010008C301000800000000AC
:1000F000000000000000000000000000C301000834
:1001000000000000C3010008C3010008C30100088B
:1001100000000000000000000000000000000000DF
:10012000C3010008C3010008C3010008C30100089F
:10013000C3010008000000000000000000000000F3
:10014000000000000000000000000000C3010008E3
:10015000C3010008C3010008C3010008C30100086F
:10016000C3010008C30100080000000000000000F7
:10017000000000000000000000000000000000007F
:1001800000000000C30100080000000000000000A3
:10019000C3010008DFF80CD000F05CFB004800470A
:1001A00039420008400500200648804706480047BD
:1001B000FEE7FEE7FEE7FEE7FEE7FEE7FEE7FEE717
:1001C000FEE7FEE78D1D0008950100082DE9F05FB0
:1001D0000546002092469B468846064681464024B6
:1001E0001BE0284641464746224600F04CFA53465B
:1001F0005A46C01A914110D311461846224600F0C3
:1002000033FA2D1A67EB01084F46224601200021E0
:1002100000F02AFA17EB00094E41201EA4F1010458
:10022000DFDC484631462A464346BDE8F09F2DE9CB
:10023000F0410024061B254671F1000605DA012471
:100240000027D0EB070067EB0101161E73F10006D3
:1002500005DA0027D2EB0702012567EB0303FFF75E
:10026000B5FF86460E4617469C46AC4204D0002594
:10027000D0EB050E65EB010624B10020D2EB0007A0
:1002800060EB030C704631463A466346BDE8F081A8
:10029000D2B201E000F8012B491EFBD270470022C8
:1002A000F6E710B513460A4604461946FFF7F0FF75
:1002B000204610BD30B504460020034600E05B1C1C
:1002C000934203D2E05CCD5C401BF8D030BD2DE9F9
:1002D000FE4F804681EA0300C00F0C46009021F0DB
:1002E000004123F00045B8EB0200A94105D2404689
:1002F000214690461C460B46024623F00040104320
:1003000047D0270DC7F30A00C3F30A510290401AE1
:10031000019040286BDAC3F3130040F4801B00986F
:10032000924620B10023D2EB030A63EB0B0B01983A
:100330005946C0F14002504600F096F906460D4677
:1003400050465946019A00F0AEF910EB08006141A1
:10035000002487EA115284EAE7731A4340D0009AD6
:1003600062B3019A012A4FEA075215DC001B61EBC8
:1003700002014FF0004202EA0752CDE90042001CA0
:1003800041F5801132462B4600F0E5F903B0BDE897
:10039000F08F40462146F9E7001B61EB0201001C8B
:1003A00041F5801300185B412018A2F5001747EBB8
:1003B000030140EAD570B6196D4111E06D084FEAAE
:1003C000360645EAC0754FEA0752001B61EB020191
:1003D000001C41F5801149084FEA300000195141D5
:1003E00032462B4603B0BDE8F04F00F0A5B90098A7
:1003F000012240000023D0EB020263EBE07300987F
:1004000021464FEAE074B8EB000061EB0401E9E734
:1004100083F000435BE781F0004158E72DE9FE4F90
:1004200081EA030404F0004421F0004100944FF0FD
:10043000000B23F0004350EA01045ED052EA0304AB
:100440005BD0C3F30A54C1F30A552C44A4F2F3342D
:100450000194A0FB0254C1F3130141F48011C3F3D2
:10046000130343F4801301FB024400FB034E840A90
:10047000970A44EA815447EA8357A4FB0768029528
:100480008D0A05FB07854FEA932C04FB0C542705C6
:10049000029D4FEA065847EA1637B5EB08056EEBA2
:1004A000070C870E920E47EA811742EA8312A7FBD8
:1004B0000201B6EB0B0164EB00042B0D43EA0C3395
:1004C0005E1844EB1C50DA465146E7FB0201C5F3C7
:1004D00013044FEA0B3343EA14534FEA0432019CEE
:1004E00043EA0603A4F10C040294009CCDE900B495
:1004F00000F031F903B0BDE8F08F00200146F9E7C4
:100500002DE9F04D81EA030404F0004B21F0004591
:1005100014464FF0000A23F0004150EA050220D0B3
:1005200054EA01021DD0C5F30A570246C5F313036E
:10053000C1F31300C1F30A5640F4801543F480134D
:10054000A7EB0608101BD64608F2FD3873EB050032
:1005500002D308F1010801E092185B41B8F1000FE5
:1005600003DA00200146BDE8F08D00204FF4801131
:10057000064684460EE0171B73EB050705D3121BD6
:1005800063EB050306434CEA010C49084FEA3000CF
:1005900092185B4150EA0107EDD152EA030012D0F4
:1005A00082EA040083EA0501084305D0101BAB4131
:1005B00006D20122002306E000224FF0004302E0B1
:1005C0006FF0010253101AEB06004CEB085110EBD0
:1005D0000A0041EB0B01BDE8F04D00F0ADB800F0B2
:1005E000004230F000400AD0C10D01F56071C0F347
:1005F000160042EA0151C20840071143704700202B
:100600000146704701F0004330B421F0004150EA48
:10061000010206D00A0DA2F56072C1F31301002A8F
:1006200002DC30BC00207047440F44EAC104C10022
:10063000E01830BC00EBC25000F047B830B50B46B4
:10064000014600202022012409E021FA02F59D4202
:1006500005D303FA02F5491B04FA02F52844151ED6
:10066000A2F10102F1DC30BD202A04DB203A00FABD
:1006700002F1002070479140C2F1200320FA03F3F9
:10068000194390407047202A04DB203A21FA02F0F7
:100690000021704721FA02F3D040C2F120029140BC
:1006A000084319467047202A06DBCB17203A41FA47
:1006B00002F043EAE07306E041FA02F3D040C2F1EF
:1006C000200291400843194670470029A8BF70478F
:1006D000401C490008BF20F00100704710B4B0FA78
:1006E00080FC00FA0CF050EA010404BF10BC704713
:1006F00049B1CCF1200421FA04F411FA0CF118BF2D
:10070000012121430843A3EB0C01CB1D4FEA0061FB
:100710004FEA102042BF002010BC704700EBC350CE
:1007200010440029A4BF10BC7047401C490008BFFA
:1007300020F0010010BC704710B5141E73F10004C6
:1007400008DA401C41F1000192185B411A4301D1C3
:1007500020F0010010BD2DE9F04D92469B4611B1ED
:10076000B1FA81F202E0B0FA80F220329046FFF74F
:100770007BFF04460F4640EA0A0041EA0B0153465C
:100780005A46084313D0114653EA010019D0C8F164
:1007900040025046FFF777FF05460E465046594641
:1007A0004246FFF761FF084305D0012004E02046E0
:1007B0003946BDE8F08D0020054346EAE0762C433B
:1007C00037430A986305E40AA0EB08000022FD0AFB
:1007D00044EA47540A3002D500200146E9E7010502
:1007E00010196941DDE9084500196941BDE8F04D7E
:1007F000A2E7C1F30A52C1F3130140F2FF3341F4FF
:1008000080119A4202DA00200146704740F23343D9
:100810009A42A2F2334202DC5242FFF734BFFFF7A2
:1008200023BF000030B5041E71F1000404DB4FF05B
:100830000044404264EB0101141E73F1000405DB27
:100840001C464FF00043524263EB0403994208BF39
:10085000904230BD064C074D06E0E06840F00103D1
:1008600094E8070098471034AC42F6D3FFF796FCA3
:10087000D85F0008F85F00082DE9F04D00231A4604
:100880001B1A8A4103DB00200146BDE8F08DC1F34D
:100890000A52C1F3130141F480154FF0000BD10748
:1008A00002D100186D41521E0027044640F2FF118C
:1008B000384601EB620A3E468046024600204FF46D
:1008C0008011FFF7E0FEC2197141BB1846EB010031
:1008D000B4EB030C75EB000C04D3E41A65EB0005D4
:1008E00017460E46241908F101006D418046342850
:1008F000E3DDF91946EB0600091BA84103D24FF0CE
:10090000FF32134601E0002213461BEB070046EBC3
:100910000A51BDE8F04DFFF70FBFFEE7704772B612
:10092000FEE7000070B5044600F008F90546601CBB
:1009300002D004480078044400F000F9401BA042B3
:10094000FAD370BD000000202DE9F84FDFF8B8A100
:100950000022012403254FF00F090AF1040BAAF12C
:10096000040E00BF0B6804FA02F63340B34273D1A1
:100970000F7907F00307012F01D0022F16D18768E6
:100980004FEA420805FA08FC27EA0C07D1F80CC028
:100990000CFA08FC4CEA070CC0F808C04768B743DB
:1009A0000E79C6F3001696403E4346600E79F64334
:1009B000B6070DD0C768560005FA06FC27EA0C07F3
:1009C000D1F808C00CFA06FC4CEA070CC0F80CC0C1
:1009D0000E7906F00306022E10D1D60800EB860829
:1009E000D8F8206057074FEAD76C09FA0CF7BE43D6
:1009F0000F6907FA0CF73743C8F8207006684FEA0A
:100A0000420C05FA0CF7BE430F7907F0030707FA0B
:100A10000CF7374307604E6816F4403F6DD03B4EED
:100A2000376847F480473760366822F0030706F4DA
:100A300080460096364E07EB060CDCF808689707F0
:100A40003F0F09FA07F826EA0806DFF8C880404594
:100A500003D14FF000081EE04FE0DFF8BC804045B6
:100A600002D14FF0010816E0DFF8B080404502D116
:100A70004FF002080FE0DFF8A880404502D14FF0A8
:100A8000030808E0DFF89C80404502D14FF00408DD
:100A900001E04FF0070808FA07F848EA0608CCF822
:100AA0000888DAF800605746D1F804C09E435FEA30
:100AB000CC2C00D51E433E60DBF800605F46D1F8C9
:100AC00004C09E435FEA8C2C00D51E433E60DEF8D6
:100AD00000607746D1F804C09E435FEA8C3C00D5A5
:100AE0001E433E60084F083F3E68D1F804C09E4355
:100AF0005FEACC3C00D51E433E60521C102AFFF436
:100B000031AFBDE8F88F0000083C01404438024096
:100B10000030014000000240000402400008024092
:100B2000000C0240001002400069084000D0012083
:100B300070470AB1816170470904FBE7014880688A
:100B4000704700000000002070B5040025D094F824
:100B50003D00002520B984F83C50204600F0B8F84C
:100B6000242084F83D002068016821F00101016023
:100B70002068016841F4004101602068016821F4A7
:100B80000041016000F01AFA4D4A6168914201D8B3
:100B90004C4900E04C49884201D2012070BD4B49CC
:100BA0002368B0FBF1F15E6826F03F060E435E60FD
:100BB0006368934206D94FF4967359434FF47A739E
:100BC000B1FBF3F12368491C1E6A26F03F0631434E
:100BD00019626168914210D84900401EB0FBF1F2E1
:100BE000521CC2F30B02042A01D2042022E0B0FB03
:100BF000F1F0401CC0F30B001CE0A268F2B301EB63
:100C0000C10303EB0116431EB3FBF6F35B1C43F475
:100C100080431B0549D092B301EBC10202EB0111E5
:100C2000401EB0FBF1F0401CC0F30B0040F48040CC
:100C300040F400402168CA694CF6FF739A431043A0
:100C4000C861D4E9071001432068026822F0C0029D
:100C500011430160D4E9030101432068826848F22E
:100C6000FF339A4311438160D4E9050108432168A9
:100C7000CA6822F0FF021043C86001E00EE016E0EF
:100C80002068016841F0010101602564202084F89A
:100C90003D00256384F83E50002070BD01EB410605
:100CA000431EB3FBF6F35B1CB3E70120C2E701EB85
:100CB0004101401EB0FBF1F0401CC0F30B00B7E750
:100CC000A086010080841E0000093D0040420F0004
:100CD000F0B587B0044614216846FFF7E0FA1A49D8
:100CE000206888422DD119480024016841F0020192
:100CF00001600068122500F0020005904FF480604A
:100D0000CDE90005032602940420CDE90360104FCD
:100D100069463846FFF718FE0820CDE90005029421
:100D20000920CDE9036069463846FFF70DFE074804
:100D30001030016841F480010160006800F4800017
:100D4000059007B0F0BD0000005800403038024068
:100D500000040240024881680278114481607047B3
:100D6000000000200B4810B5016841F400710160DB
:100D7000016841F480610160016841F480710160A3
:100D8000032000F06FF80F2000F006F800F024F8C0
:100D9000002010BD003C024070B50D4D04464FF4DC
:100DA0007A712878B1FBF0F00A490968B1FBF0F0DC
:100DB00000F00CFB48B9102C07D200222146501E2F
:100DC00000F030F800206C6070BD012070BD0000A4
:100DD000000000200C0000200A4808B5016841F41A
:100DE00080410160006800F4804000900548001FC9
:100DF000016841F080510160006800F0805000906F
:100E000008BD000044380240002809DB00F01F0242
:100E1000012191404009800000F1E020C0F800115C
:100E200070470000F0B40E4B1B680C46C3F302235E
:100E3000C3F10705042D00D90425191D072901D286
:100E4000002300E0DB1E012606FA05F1491E2140C1
:100E500099409E40761E16403143F0BC01F012B915
:100E60000CED00E0064900F0070208684FF6FF03AA
:100E7000184040EA0220034A10430860704700000F
:100E80000CED00E00000FA052DE9F0470E460500E4
:100E900065D0DFF81481D8F80000F7B200F0070041
:100EA000B04207D288F80070D8F8000000F00700C0
:100EB000B04254D128683D4C810712D5400703D574
:100EC000206840F4E05020602878000703D52068AF
:100ED00040F4604020602068A96820F0F0000843DA
:100EE00020602878C0072DD030496868083901286B
:100EF00012D0022813D0032811D0096889070029CD
:100F00002DDA216821F0030101432160FFF716FE6D
:100F1000814641F2883A0EE009688903EFE70968E3
:100F20008901ECE7FFF70AFEA0EB0901514502D960
:100F30000320BDE8F0872068696800F00C00B0EB82
:100F4000810FEFD1D8F80010404601F00701B142FF
:100F500007D90770006800F00700B04201D00120F7
:100F6000E7E72878400705D52068E96820F4E050D5
:100F7000084320602878000706D52068296920F4F6
:100F8000604040EAC100206000F038F82168084A5B
:100F9000C1F30311515CC840064908600648006867
:100FA000FFF7FAFE0020C4E7003C02400838024088
:100FB000325200080C0000200400002004480549BB
:100FC00000680968044AC1F38221515CC840704737
:100FD0000C0000200838024042520008044805492D
:100FE00000680968044AC1F34231515CC840704747
:100FF0000C0000200838024042520008154810B585
:10100000006810F00C02144813D01449042A0FD0C1
:10101000082A0ED10F4C241F2268236802F03F02D9
:101020005B0207D52068C0F38810A0FB010106E031
:10103000084610BD2168C1F38811A1FB00010023FF
:10104000FFF7C4F82168C1F30141491C4900B0FB16
:10105000F1F010BD083802400024F40040787D0112
:101060002DE9F84F04006ED02078DFF84C93C007CC
:10107000A9F104054AD009F104000168C1F3810116
:10108000012908D00068C0F3810002280AD1D9F8EC
:101090000000400206D52868800337D56068002824
:1010A000E1D033E06068B0F5803F10D0B0F5A02FFC
:1010B000286810D020F480302860286820F4802030
:1010C00028606068A8B1FFF739FD06460DE0286882
:1010D00040F48030F4E740F480202860F7E700BF58
:1010E000FFF72CFD801B642873D828688003F7D590
:1010F0000CE0FFF723FD064605E000BFFFF71EFDED
:10110000801B6428F0D828688003F7D42078DFF8A3
:10111000AC8280074FF0000A3ED5A748001D016849
:1011200011F00C0F08D00068C0F3810002280BD129
:10113000D9F80000400207D42868800716D5E06877
:10114000012800D112E033E1E068B8B10120C8F80D
:101150000000FFF7F3FC064605E000BFFFF7EEFCDA
:10116000801B0228C0D828688007F7D52868216925
:1011700020F0F80040EAC10028600DE0C8F800A0A7
:10118000FFF7DCFC064604E0FFF7D8FC801B0228D2
:101190001FD828688007F7D42078000722D5864F0B
:1011A00087486169703771B101210160FFF7C6FCA2
:1011B000064604E0FFF7C2FC801B022809D8386805
:1011C0008007F7D50EE0C0F800A0FFF7B7FC064691
:1011D00005E082E0FFF7B2FC801B02287DD838686A
:1011E0008007F7D42078400768D5DFF8CCB1002716
:1011F0000BF13C0BDBF80000C0000BD4DBF8001057
:1012000041F08051CBF80010DBF80000012700F01E
:10121000805000906B4E3068C00510D4306840F4A8
:1012200080703060FFF78AFC009005E0FFF786FCD5
:101230000099401A022850D83068C005F6D55E4E95
:10124000A0686C3601280FD00528306810D020F037
:1012500001003060306820F004003060A068B8B150
:10126000FFF76CFC00900FE0306840F00100F4E7FD
:1012700040F004003060F7E7FFF760FC0099411A86
:1012800041F28830814266D830688007F4D50EE09C
:10129000FFF754FC009007E0FFF750FC0099411A5B
:1012A00041F28830814256D830688007F4D42FB19B
:1012B000DBF8001021F08051CBF80010A069C8B312
:1012C0003D49091D0968C1F3810102294AD002285C
:1012D000504607D0C8F8600000E03CE0FFF72EFC65
:1012E00004463BE04746C8F86000FFF727FC064687
:1012F00005E000BFFFF722FC801B02282BD82868DE
:101300008001F7D4D4E907010843A16A2E4A4908AD
:1013100002EB0141626A41EA8211084394F82C1001
:1013200040EA0161C9F8001001203866FFF706FCA9
:10133000044606E03EE000BFFFF700FC001B022869
:1013400009D828688001F7D534E000BFFFF7F6FB25
:10135000001B022802D90320BDE8F88F286880010D
:10136000F4D427E00128F7D0D9F80000E26900F4AE
:10137000800191421CD1226A00F03F01914217D1B5
:1013800047F6C071626A0140B1EB821F10D1A26AB8
:101390004FF0FF3300F4403103EB5202B1EB024F48
:1013A00006D194F82C1000F07060B0EB016F01D002
:1013B0000120D1E70020CFE7043802400000474277
:1013C000800E4742007000400000FFFF10B5401E35
:1013D000B0F1807F01D3012010BD4FF0E0246061A7
:1013E0000F21601700F04EFE0020A0610720206151
:1013F000002010BD7047704710B5040003D094F86A
:101400003D0010B107E0012010BD002084F83C0031
:10141000204600F01FF8022084F83D00211D2068BE
:1014200000F0C2FC012084F8460084F83E0084F8F5
:101430003F0084F8400084F8410084F8420084F8BA
:10144000430084F8440084F8450084F83D000020FF
:1014500010BD000008B500680B49884212D10B4846
:10146000016841F4803101600068002200F480309E
:10147000009011461820FFF7D5FCBDE80840182061
:10148000FFF7C2BC08BD00000040014044380240E4
:1014900070B5044690F83C000025012817D00126BD
:1014A00084F83C60022084F83D002068826822F0C5
:1014B000770222F47F4282600868502838D00DDC21
:1014C00020284FD005DC90B3102811D14AE002202B
:1014D00070BD302846D040280AD13BE060282FD08C
:1014E00070280DD0B0F5805F03D0B0F5005F12D04A
:1014F000012584F83D60002084F83C00284670BD3A
:10150000CB68D1E90121206800F09AFC206881684D
:1015100041F0770109E0CB68D1E90121206800F0B2
:101520008FFC2068816841F480418160E1E719E027
:10153000CA684968206800F095FC5021206806E0E0
:10154000CA684968206800F09EFC6021206800F0AD
:1015500081FCCEE7CA684968206800F083FC40211E
:101560002068F4E7226801461046F0E7704770B53E
:101570000446006801694FF00005C943890715D486
:10158000C168C943890711D4E91E01610120207790
:10159000206880698007204602D0FFF7E7FF04E05B
:1015A00000F098F8204600F096F825772068016949
:1015B000C943490717D4C168C943490713D46FF019
:1015C00004010161022020772068806910F4407FC7
:1015D000204602D0FFF7CAFF04E000F07BF8204667
:1015E00000F079F8257720680169C943090716D406
:1015F000C168C943090712D46FF0080101610420D2
:1016000020772068C0698007204602D0FFF7AEFF30
:1016100004E000F05FF8204600F05DF825772068D0
:101620000169C943C90617D4C168C943C90613D49F
:101630006FF010010161082020772068C06910F464
:10164000407F204602D0FFF791FF04E000F042F80F
:10165000204600F040F8257720680169C943C90792
:1016600008D1C168C943C90704D1891E0161204658
:1016700000F032F820680169C943090609D4C1683D
:10168000C943090605D46FF0800101612046FFF7C8
:10169000B1FE20680169C943490609D4C168C9433C
:1016A000490605D46FF040010161204600F015F8AD
:1016B00020680169C94389060BD4C168C9438906FA
:1016C00007D46FF0200101612046BDE87040FFF7AC
:1016D00092BE70BD704770477047704770B5040088
:1016E00004D094F83D00002510B106E0012070BD43
:1016F00084F83C50204600F023F8242084F83D0074
:101700002068C16821F40051C160204600F0CEFB82
:101710002068016921F4904101612068416921F04C
:101720002A0141612068C16841F40051C16025640B
:10173000202084F83D0084F83E00002070BD0000A9
:1017400010B586B0044614216846FEF7A8FD14497A
:101750002068884221D113480021026842F010021B
:101760000260006800F0100005900E48143802680E
:1017700042F001020260006800F0010005904FF4A1
:10178000C06000900220CDE90101032003900720F2
:10179000049069460448FFF7D7F806B010BD000072
:1017A0000010014044380240000002402DE9F84397
:1017B000044690F83D001F4616460D4620284CD1A1
:1017C000C5B1BEB194F83C00012846D0012084F890
:1017D0003C004FF00008C4F84080212084F83D0010
:1017E000FFF7ACF9A6848146E684A068B0F5805F77
:1017F00003D004E00120BDE8F883206928B12E461B
:101800005FF0000584F83C800EE00026FAE78021B6
:10181000204600F0D1FBA0B9AEB116F8010B21684B
:101820004860E08C401EE084E08C4B464FF00002A4
:1018300000970028EBD14FF04001204600F0BCFBA0
:1018400030B10320D7E735F8020BC0F30800E6E714
:10185000202084F83D000020CDE70220CBE7FEE702
:10186000FF20401EFDD2704710B50B4C0022022114
:101870002046FFF75EF9012211462046FFF759F98D
:10188000FFF7EEFF012202212046FFF752F9BDE8E3
:101890001040FFF7E5BF0000000002402DE9F041D5
:1018A000144E07460024012202213046FFF741F979
:1018B00000256006040E012211463046FFF739F973
:1018C000FFF7CEFF02213046FFF72EF908B1641C66
:1018D000E4B2002201213046FFF72BF9FFF7C0FFE9
:1018E0006D1C082DE5DB384600F068F82046BDE8A1
:1018F000F08100000000024070B5114E0546002442
:10190000280601D5012200E0002202213046FFF71F
:1019100010F9FFF7A5FF012211463046FFF709F93C
:10192000FFF79EFF002201213046FFF702F968060B
:10193000050E641C082CE3DBBDE8704000F020B805
:101940000000024010B50D4C012202212046FFF795
:10195000F0F8012211462046FFF7EBF8FFF780FF71
:10196000002202212046FFF7E4F8FFF779FF204626
:101970000022BDE810400121FFF7DBB80000024063
:1019800070B50D4D012202212846FFF7D2F8FFF76E
:1019900067FF012211462846FFF7CBF8FFF760FFEB
:1019A00002212846FFF7C0F80446002201212846FC
:1019B000FFF7BFF8204670BD0000024010B50D4C87
:1019C000012814D0002202212046FFF7B2F8FFF7C9
:1019D00047FF012211462046FFF7ABF8FFF740FF13
:1019E00020460022BDE810400121FFF7A2B80122E5
:1019F000E9E700000000024010B580216B2000F0F4
:101A0000ABF86420FEF78EFF00216B2000F0A4F8F5
:101A1000032000F06DF8002000F065F8322000F09F
:101A200084F80021382000F097F800216A2000F0A7
:101A300093F80021232000F08FF88021372000F058
:101A40008BF8752000F00DF801216B2000F084F870
:101A500000216C2000F080F8C82000F066F800201B
:101A600010BD10B50446FFF76DFFD020FFF744FF0F
:101A70002046FFF741FFFFF765FFD120FFF73CFF4E
:101A80000120FFF70BFF0446FFF7EEFE204610BDD6
:101A90002DE9F0411D4614460F460646FFF752FF5A
:101AA0007006000EFFF728FF3846FFF725FFFFF707
:101AB00049FF012000EB4600C0B2FFF71DFF09E01F
:101AC000012C0ED05FF00000FFF7E8FE641E05F861
:101AD000010BE4B2002CF3D1FFF7C6FE0020BDE8F5
:101AE000F0810120F0E7C006010E1C2000F034B8A0
:101AF000C006010E1B2000F02FB8BC2801D3012125
:101B000010E0622801D302210CE02A2801D303212E
:101B100008E0142801D3042104E00A2801D3052198
:101B200000E006211A2000F017B810B504464FF463
:101B30007A70844201D9044602E0042C00D20424C5
:101B4000B0FBF4F0401EC1B2192000F005F86008A7
:101B5000BDE81040FFF7D1BF70B50D460446FFF752
:101B6000F1FED020FFF7C8FE2046FFF7C5FE28464D
:101B7000FFF7C2FEFFF778FE002070BD2DE9F041AF
:101B80001E4615460F460446FFF7DCFE6006000EB3
:101B9000FFF7B2FE3846FFF7AFFE002404E0305DE9
:101BA000FFF7AAFE641CE4B2AC42F8D3FFF75CFE78
:101BB0000020BDE8F081000010B586B01421684611
:101BC000FEF76DFB1548016841F080010160016876
:101BD00001F080010591016841F001010160016897
:101BE00001F001010591016841F002010160006806
:101BF0000B4C00F002000590012203212046FEF765
:101C000098FF03211120CDE900100120CDE9020148
:101C100069462046FEF798FE06B010BD30380240F7
:101C2000000002400D4810B50B4901600C494160AD
:101C300000214FF480428160C0E90312416181615B
:101C4000C1610162FEF780FF002803D0BDE81040AB
:101C5000FEF765BE10BD0000005800405000002097
:101C6000A08601001FB50021114800910191029149
:101C70000E4A039102605322C0E901214FF6FF7220
:101C8000C0E9032180218161FFF7B6FB08B1FEF7AF
:101C900046FE4FF48050009069460548FFF7F8FB78
:101CA000002801D0FEF73BFE1FBD000000400140B0
:101CB000A40000200C4810B50A4901604FF4E1313E
:101CC0004160002181600C22C160C0E90412816181
:101CD000C161FFF703FD002803D0BDE81040FEF707
:101CE0001EBE10BD00100140EC000020FEE7FEE724
:101CF00070477047FFF72EB830B593B03021684673
:101D0000FEF7CDFA14210CA8FEF7C9FA1D480025EC
:101D1000016841F080510160006800F0805011902E
:101D20001948016821F4404141F400410160006814
:101D3000022400F440401190012000900004019022
:101D40008001CDE9064019200890A820CDE90904BA
:101D500004200B906846FFF783F908B172B6FEE7DE
:101D60000CA90F2081E831004FF48050CDE90F0518
:101D700002210CA8FFF788F8002801D072B6FEE710
:101D800013B030BD40380240007000400248016886
:101D900041F470010160704788ED00E00148FFF7F1
:101DA000E6BB0000A4000020F0B502681D4B1E4CED
:101DB0009F031E4D1E4E984207D0B84205D0A04248
:101DC00003D0A84201D0B04204D122F0700C4A687E
:101DD00042EA0C02984210D0B8420ED0A0420CD079
:101DE000A8420AD0B04208D0124CA04205D0124CF2
:101DF000A04202D0114CA04203D122F44074CA6820
:101E000022434C6922F08002224302608A68C26247
:101E10000A688262984201D1096901630121416126
:101E2000F0BD000000000140000400400008004038
:101E3000000C0040004001400044014000480140C7
:101E400010B5846842EA032224F47F440A43224303
:101E5000826010BD826822F070020A4342F00701DE
:101E60008160704710B5036A046A24F001040462BB
:101E7000846924F0F00444EA021423F00A020A43BD
:101E80008461026210BD10B5036A23F0100303627F
:101E90008369046A23F4704343EA023224F0A00306
:101EA00043EA01118261016210BD000070B5044671
:101EB00000680169E26821F4405111430161216920
:101EC000A068E26908436169114308432168CA6850
:101ED00049F20C639A430243CA6020684169A269CF
:101EE00021F440711143416131492068884202D098
:101EF0003049884202D1FFF771F801E0FFF75EF840
:101F0000E2690023192164253226B2F5004F626888
:101F100028D0A0FB0101930F9200FEF757F901466C
:101F2000B0FBF5F06FF01802504301EB800006EBB8
:101F30000010B0FBF5F000F0F002B1FBF5F002EBA1
:101F40000012B1FBF5F06FF01803584301EB80006D
:101F500006EB0010B0FBF5F000F00F002168104414
:101F6000886070BDA0FB010192185B41FEF72EF95D
:101F70000146B0FBF5F00201B1FBF5F06FF018037C
:101F8000584301EB800006EBC000B0FBF5F000F019
:101F9000F80002EB4002B1FBF5F0584301EB800082
:101FA00006EBC000B0FBF5F000F00700D6E700003C
:101FB00000100140001401402DE9F04198461746F9
:101FC0000E460446069D27E0681C25D02DB1FEF77D
:101FD000B5FDA0EB0800A8421ED920680C3050E8DF
:101FE000001F21F4D07140E80012002AF5D12068CA
:101FF000143050E8001F21F0010140E80012002ACF
:10200000F5D1202084F83D0084F83E00002084F8BB
:102010003C000320BDE8F0812068006836EA00003B
:1020200004D00020B842CFD00020F3E70120F9E728
:10203000FEE700000FB4054B10B503A9044A02984F
:1020400000F0BEFD10BC5DF814FB0000193D000857
:102050004800002003B401984100009850EAC120D4
:1020600018BF04204A0D18BF40F0010040F2FF7273
:10207000B2EB515F08BF40F00200012808BF052005
:1020800002B070470907090E002804DB00F1E020C8
:1020900080F80014704700F00F0000F1E02080F895
:1020A000141D70470000000070B5C1482DED020BF3
:1020B0002DED0E8B82B0119D25F000449FEDBEDB0F
:1020C0009FEDBFEB84423EDBA4F140511098A1F19B
:1020D0007F6108430FD0BC48844202DC28D11098AD
:1020E00030B39DED100B02B0BDEC0E8B02B0BDE81D
:1020F000704000F069BC9DED100B53EC1D2B51ECB2
:10210000100BFEF78BF99DED100B41EC180B53EC07
:102110001E2B51EC100BFEF781F953EC182BFEF738
:10212000D6F841EC100B02B0BDEC0E8B02B070BDC6
:10213000012000F08DFC02B0BDEC0E8B02B0BDE8BA
:10214000704000F055BCA1489FEDA18B844256DA47
:102150009DED100BB4F1795F0ADA51EC100BFFF72B
:1021600079FF042808BF00F053FC9DED100BDAE75F
:1021700053EC102B51EC100BFEF750F941EC190BFE
:1021800095480621B0EE490AF0EE690A784400F05D
:102190009FFB53EC192B51EC100BFEF73FF941EC70
:1021A0001A0B8E48B0EE490AF0EE690A0421784411
:1021B00000F08EFB53EC192B51EC100BFEF72EF9AF
:1021C00053EC182BFEF783F841EC100B51EC1A0B73
:1021D00053EC102BFEF794F9CDE900019DED000BB7
:1021E00053EC102B9DED100B51EC100BFEF716F974
:1021F0009DED101B53EC112BFEF769F8D2E09DED1D
:10220000100B51EC100B01F07BFD53EC182BFEF77B
:1022100002F99FED730BCDE9000153EC102B9DEDFE
:10222000000B51EC100BFEF7F9F841EC190B6E485E
:102230000621B0EE490AF0EE690A784400F048FB46
:1022400053EC192B51EC100BFEF7E8F841EC1B0B8B
:102250006648B0EE490AF0EE690A0421784400F0BD
:1022600037FB53EC192B51EC100BFEF7D7F853EC5E
:10227000182BFEF72CF841EC1C0B51EC190B02F05B
:10228000A1FF41EC180B5A489FED5BABA04222DC4A
:1022900053EC1C2B51EC1B0BFEF732F9CDE900017E
:1022A0009DED000B51EC180B53EC102BFEF7B6F81C
:1022B00053EC182BFEF70BF853EC1A2BFEF7AEF885
:1022C00053EC1D2BFEF7A4F853EC1E2BFEF7A3F8DE
:1022D00041EC100B5FE08DED008B002000909DED38
:1022E000000B51EC180B53EC102BFDF7F0FF9DED9C
:1022F000000B41EC1E0B53EC102B51EC100BFEF7B6
:102300008DF853EC192BFEF786F853EC1E2BFEF7D5
:10231000F7F841EC190B53EC1C2B51EC1B0BFEF79F
:10232000EFF841EC1B0B53EC1A2B51EC190BFEF799
:1023300075F853EC1D2BFEF76EF841EC190B53ECBE
:102340001A2B51EC180BFEF769F853EC1B2BFEF718
:1023500065F853EC192BFEF75BF89DED000B41EC93
:10236000180B53EC1A2B51EC100BFEF757F89FED9E
:10237000249B53EC192BFEF74EF841EC100B51EC5B
:10238000180B53EC102BFEF743F853EC192BFEF708
:1023900042F841EC100B002D3FF7C5AE51EC100B8D
:1023A00081F0004141EC100BBDE600000000000090
:1023B0000000F03F00000000075C143326A6913CAB
:1023C000182D4454FB21F93F0000F07F0000E03F4E
:1023D000000000000000F03F083D0000163D000036
:1023E000000000000000E03F5A3C0000683C000094
:1023F0003333EF3F00000000000000000000004009
:10240000182D4454FB21E93F70B59B482DED020B7C
:102410002DED068B079D25F00044A04218DC97485F
:10242000844202DC0AD1069840B19DED060BBDEC5A
:10243000068B02B0BDE8704000F0C6BA002DCCBFDC
:102440009FED8F0B9FED900BBDEC068B02B070BD26
:102450008F48A04215DD8F48A042D8BF4FF0FF340F
:1024600058DD9DED060B51EC100BFFF7F3FD042832
:1024700008BF00F0CDFA9DED060BBDEC068B02B057
:1024800070BD9DED060B51EC100B01F039FCCDE950
:10249000060181489FED828BA0423CDD8248A0422C
:1024A0001FDD00249FED82AB9DED060B53EC1A2B34
:1024B00051EC100BFDF70BFF9DED060B41EC190BDA
:1024C00053EC1A2B51EC100BFDF7A8FF53EC182B13
:1024D000FDF79EFF53EC192BFEF712F8CDE906012C
:1024E00049E09DED060B012453EC182B51EC100B29
:1024F000FDF7EDFE9DED060B41EC190B53EC182B8F
:1025000051EC100BFDF784FF53EC192BFDF7F8FF8E
:10251000CDE906012FE06848A0421FDD02249FEDAF
:10252000689B9DED060B53EC192B51EC100BFDF73E
:1025300075FF53EC182BFDF7CAFE9DED060B41EC21
:10254000180B53EC192B51EC100BFDF761FF53ECFA
:10255000182BFDF7D5FFCDE906010CE09DED060B2C
:10256000032453EC102B9FED580B51EC100BFDF78F
:10257000C7FFCDE906019DED060B53EC102B51EC86
:10258000100BFDF74BFF41EC180B53EC182BFDF72C
:1025900045FF41EC190B4E480621B0EE490AF0EE1A
:1025A000690A784400F094F953EC182B51EC100BA5
:1025B000FDF734FF41EC180B4648B0EE490AF0EE47
:1025C000690A0521784400F083F953EC192B51EC8A
:1025D000100BFDF723FF41EC100B51EC180B53ECE3
:1025E000102B002C0EDAFDF772FE9DED061B53EC4E
:1025F000112BFDF713FF9DED061B53EC112BFDF77F
:102600000AFF35E0FDF763FE9DED061B53EC112B31
:10261000FDF704FF41EC100B2F48784400EBC40099
:1026200090ED001B51EC100B53EC112BFDF7F0FE5D
:102630009DED061B53EC112BFDF7EAFE41EC100B50
:102640002648784400EBC40090ED001B51EC100BC1
:1026500053EC112BFDF7DFFE41EC100B002DA2BF58
:10266000BDEC068B02B070BD51EC100B81F0004147
:1026700041EC100B01E70000000010440000F07F67
:10268000182D4454FB21F93F182D4454FB21F9BF68
:102690000000DC3F0000203E0000F33F000000008F
:1026A000000000000000F03F0000E63F00000000D6
:1026B0000000000000000040008003400000000017
:1026C000000000000000F83F000000000000F0BF24
:1026D000AA39000060390000EA380000A238000082
:1026E00070B56B4E2DED040B2DED028B82B0DDF835
:1026F0001CC0DDE905235C422CF000411C4341EA8B
:10270000D474049D22F00040B44205D86C422C439E
:1027100040EAD474B4420BD99DED061B9DED040B29
:1027200002B0BDEC028B04B0BDE8704000F056B9B9
:10273000ACF14054A4F17F641C430BD0022404EAA2
:10274000AC7444EAD27405439FED538B9FED542B38
:1027500007D015E09DED040B51EC100B00F010FEBE
:1027600042E0002C11BF012C9DED040B02B0BDEC2A
:10277000028B04BF04B070BD022C38D0032C3BD0B8
:102780000B439FED491B9FED4A0B0AD0B14218D174
:10279000B04209D121F0804120F08040079105909E
:1027A0000FE0002A15DA10E0434B7B44002C08BFF1
:1027B00093ED000B0DD0012C10D0022C17D0032C60
:1027C0001AD0B0421DD1002A03DAB0EE410AF0EE71
:1027D000610A02B0BDEC028B04B070BD93ED000B3A
:1027E00051EC100B81F0004141EC100BF1E7B0EE21
:1027F000480AF0EE680AECE7B0EE420AF0EE620A30
:10280000E7E7401A00153C28C8BF8DED000B19DC26
:10281000BCF1000FBEBF10F13C0F9FED290B8DEDF9
:10282000000B0FDB9DED060B53EC102B9DED040B05
:1028300051EC100BFDF764FE01F062FA00F0A0FD10
:10284000CDE90001002C08BF9DED000BC1D0012C8B
:1028500010D0022C9FED1C0B53EC102B9DED000BA8
:1028600051EC100B0DD0FDF7D3FD53EC182BFDF7F9
:10287000CFFDB9E7019880F0004001909DED000B7D
:10288000A7E7FDF7C5FD53EC182BFDF7C4FDABE73B
:102890000000F07F00000000182D4454FB21094087
:1028A000182D4454FB2109C0182D4454FB21F9BFB5
:1028B000182D4454FB21F93FD237000000000000DE
:1028C0000000000000000000075C143326A6A13CB5
:1028D00070B504462DED028B4D1E00EBC500B0EE29
:1028E000408AF0EE608A90ED000B35F0060017D0BC
:1028F00053EC182B51EC100BFDF790FD41EC100B35
:102900006D1E04EBC50090ED001B51EC100B53EC59
:10291000112BFDF7DCFC41EC100B35F00600E7D184
:10292000022D36D0042D1CD0062D1CBFBDEC028B11
:1029300070BD53EC182B51EC100BFDF76FFD94EDAF
:102940000A1B53EC112BFDF7C2FC53EC182BFDF7BF
:1029500065FD94ED081B53EC112BFDF7B8FC41EC21
:10296000100B53EC182B51EC100BFDF757FD94EDA9
:10297000061B53EC112BFDF7AAFC53EC182BFDF7AB
:102980004DFD94ED040B53EC102BFDF7A0FC41EC36
:10299000100B53EC182B51EC100BFDF73FFD94ED91
:1029A000021B53EC112BFDF792FC53EC182BFDF797
:1029B00035FD94ED001B53EC112BFDF788FCBDECAD
:1029C000028B41EC100B70BD10B553EC102B51EC89
:1029D000100BFDF77CFC41EC100B10BD10B553EC57
:1029E000112B51EC100BFDF772FC41EC100B10BDDC
:1029F0009FED050B10B553EC102B51EC100BFDF7B0
:102A00007FFD41EC100B10BD000000000000000035
:102A10009FED050B10B553EC102B51EC100BFDF78F
:102A2000FDFC41EC100B10BD000000000000001088
:102A300002E008C8121F08C1002AFAD17047704787
:102A4000002001E001C1121F002AFBD170470000E5
:102A500001490860704700004C0000202DE9FF5F2D
:102A6000DDE90220010DDDF838B0024318D044F64C
:102A70001050A1F2FF3141430D140F98012820D0CE
:102A8000A5EB0B00401C5FEA000A4FF00004474E24
:102A9000DFF81C91A046504616D5CAF1000728E081
:102AA0000F98012443A2012808D0002100980F9B11
:102AB000C0E90021C0E90243BDE8FF9F6FEA0B01B6
:102AC000F4E7CBF10000DEE7074612E0F80707D095
:102AD0002246334640464946FDF7A0FC80468946DB
:102AE0002246334610461946FDF798FC04460E462A
:102AF0007F10002FEAD1DDE90201BAF1000F424652
:102B00004B4602DAFDF78AFC01E0FDF7F9FC0446CA
:102B10000E460022284BFDF785FE03D84FF0FF300C
:102B2000014607E00022254B20463146FDF7CFFB4A
:102B3000FDF75FFE102409E0002C0ADB0A220023C7
:102B4000FDF744FB019B30321A55641E50EA010226
:102B5000F2D1641C019AC4F1110314440F9A012AA2
:102B600003D0012208430DD10AE0084304D000201D
:102B70004FF0110B0F9080E7A3EB0B056D1E0DE0DE
:102B80005B4504DD4FF0000205F1010504E003DAC6
:102B90004FF00002A5F10105002AECD000980F9932
:102BA000C0E90231C0E9004586E70000000024408A
:102BB0000000F03F300000000000F0430000E03F64
:102BC0002DE9FF4F95B09B468946064600250FE24A
:102BD000252877D100242746F84A0121059400E0F2
:102BE000044316F8013F203B01FA03F01042F7D1ED
:102BF00030782A2811D06FF02F033078A0F13002FE
:102C0000092A16D8059A44F0020402EB820203EB6B
:102C100042021044761C0590EFE759F8042B059208
:102C2000002A03DA504244F40054059044F00204B0
:102C3000761C30782E2816D116F8010F44F00404C3
:102C40002A280DD06FF02F023078A0F13003092B25
:102C500009D807EB870302EB4303C718761CF3E799
:102C600059F8047B761C30786C280FD006DC4C2891
:102C700017D068280DD06A2814D104E0742810D029
:102C80007A280FD10DE044F400140AE044F48014D3
:102C900001E044F440147278824202D104F58014B9
:102CA000761C761C307866280BD013DC582877D039
:102CB00009DC002875D04528F6D04628F4D04728EE
:102CC0001AD19DE118E0632835D0642879D06528B1
:102CD00012D195E1702873D008DC6728F1D06928FB
:102CE0006FD06E280DD06F2806D1B5E073282CD098
:102CF000752875D0782874D05A46179990476D1C5E
:102D000075E1C4F30250022809D003280DD0D9F888
:102D1000001004280DD00D6009F1040967E1D9F80D
:102D20000010EA17C1E90052F6E7D9F800100D804B
:102D3000F2E70D70F0E719F8041B8DF80010002081
:102D40008DF80100EA46012003E059F804AB4FF08A
:102D5000FF3061074FF0000102D40DE008F10101DE
:102D60008846B9420FDA8045F8DB1AF808100029C6
:102D7000F4D108E008F1010188468142FADB1AF833
:102D800008100029F6D105985B46A0EB08072146FC
:102D90003846179A00F094FA284400EB080507E03B
:102DA0004DE029E10DE01AF8010B5A4617999047BA
:102DB000B8F10108F7D25B4621463846179A13E16D
:102DC00042E00A220092C4F302524FF0000A022AA3
:102DD00008D059F804CB032A4FEAEC710AD00DE071
:102DE00029E02AE009F1070121F00702F2E802C117
:102DF000914609E00FFA8CFC4FEAEC71042A03D1EA
:102E00004FFA8CFC4FEAEC71002907DA0A460021E0
:102E1000DCF1000C61EB02012D2202E0220504D559
:102E20002B228DF80420012203E0E20701D02022AA
:102E3000F7E7904659E00A2102E010220DE0102148
:102E40004FF0000A00910BE010224FF0000A44F00E
:102E500004040827009203E008224FF0000A0092C1
:102E6000C4F30252022A05D059F804CB0021032AE8
:102E700008D009E009F1070121F00702F2E802C1D8
:102E8000914605E01FFA8CFC042A01D10CF0FF0CDE
:102E90004FF00008220728D5702806D0009B83F049
:102EA000100353EA0A0305D00EE040228DF80420F7
:102EB000012208E05CEA010206D030228DF80420ED
:102EC0008DF8050002229046009B83F0080353EA28
:102ED0000A030AD15CEA010201D1620705D530225A
:102EE0008DF804204FF001087F1E582804D034A02C
:102EF00003900EA802900DE036A0F9E75346604615
:102F0000009AFDF763F984460398825C0298401E9C
:102F1000029002705CEA0100F0D1029806A9081A3A
:102F200000F1200A600702D524F4803400E0012774
:102F3000574502DDA7EB0A0000E0002000EB0A0184
:102F4000009005984144401A0590E00306D45B4682
:102F50002146179A059800F0B3F90544002706E0CA
:102F600001A85A46C05D179990476D1C7F1C4745C4
:102F7000F6DBE0030CD55B462146179A059800F076
:102F80009FF9054404E030205A46179990476D1C7C
:102F90000099481E00900029F5DC08E0029802998B
:102FA0005A460078491C0291179990476D1CBAF156
:102FB0000001AAF1010AF1DC65E100000928010025
:102FC000303132333435363738396162636465669F
:102FD0000000000030313233343536373839414261
:102FE000434445460000000000F058F90544761CB3
:102FF000307800287FF4ECAD19B02846BDE8F08F9A
:10300000620700D4062709F1070222F0070CFCE84A
:103010000223E14603F000485FEA080C02D00FF2F9
:10302000702C0DE05FEA045C02D50FF2682C07E01B
:103030005FEAC47C02D00FF2602C01E0AFF2700CAA
:103040004FF0FF3823F00043CDF850C065280CD076
:1030500006DC452809D046281DD047283DD13DE053
:10306000662818D067287ED138E00021112F01DBB7
:10307000112000E0781CCDE9000106A90EA8FFF799
:10308000EDFCDDE90F010E9A03910021009207F19A
:10309000010A04914DE04FF000400097CDE9011086
:1030A00006A90EA8FFF7DAFCDDE90F0203920E9BDA
:1030B00011990022DDF80CA00093049211B9791C3B
:1030C00000EB010AB7EB0A0004D4C0F1FF3007F1AE
:1030D000010A0490AAEB0700019044E0012F00DAF6
:1030E00001270021112F01DD112000E03846CDE934
:1030F000000106A90EA8FFF7B1FCDDE90F010E9A49
:103100000391002104910092BA4621070CD403993F
:10311000514500DA8A46BAF1010F05DD009AAAF19D
:103120000101515C302908D0B84202DA10F1040FD5
:1031300006DA0121CDE9011015E0AAF10101E9E764
:10314000002805DC049901440491AAEB000102E087
:10315000411C514500DD8A460499401A401C0190EB
:103160004FF000400290200704D40198504501DB45
:10317000CDF8048000208DF84F0002980DF14F0724
:10318000B0F1004F25D02B200E9002984FF002088E
:1031900000280CDA404202902D200E9007E00A2110
:1031A0000298FDF74BFA3031029007F8011DB8F193
:1031B0000001A8F10108F2DC02980028EFD1791E85
:1031C0000E980870307800F0200040F0450007F8B5
:1031D000020D12A8C01B00F107081498007800B176
:1031E000012000EB0A01019801EBE07105984144D0
:1031F000401A401E0590E00306D45B462146179A0C
:10320000059800F05DF805441498007818B15A4606
:10321000179990476D1CE00324D55B462146179A09
:10322000059800F04DF805441CE00498002807DBE1
:10323000DDE90301884203DD0098405C179901E055
:10324000179930205A469047049805F10105401C13
:1032500004900198401E019004D12E205A461799DF
:1032600090476D1CBAF10001AAF1010ADDDC05E00E
:1032700017F8010B5A46179990476D1CB8F10001D9
:10328000A8F10108F4DC5B462146179A0598ABE6E5
:103290002D0000002B000000200000002DE9F0416F
:1032A000044600251E461746880404D405E0394626
:1032B0002020B0476D1C641EF9D52846BDE8F0817A
:1032C0002DE9F041044600251E469046C80301D56D
:1032D000302700E02027880404D505E04146384621
:1032E000B0476D1C641EF9D52846BDE8F08100008A
:1032F000FEB506460D460024684600F019FD002282
:103300009FED1B1A6B46012156F8227055F82200DA
:10331000381A00D5404200EE100A03EB8200B8EEE6
:10332000C00AD0ED000A20EE010AF5EEC00AF1EE67
:1033300010FA0DD0C0EE201AB7EE000A0D4F31EE94
:10334000C00AB0EEC00A10EE100AB84207DC09E06D
:1033500010EE100A084F3844084FB84202D301FA61
:1033600002F00443521C032ACEDB2046FEBD0000BF
:1033700000008037295C0F3E666666C19A99D900C5
:1033800010B541EC100BFFF73FF851EC100B10BDDE
:1033900008B560B120208DF8000028208DF80100CC
:1033A00030208DF8020038208DF8030004E0A322BD
:1033B00004216846FCF76CFF6A46042140F69E2013
:1033C00001F066FE01F024FB08BD00003EB5044696
:1033D00002208DF80000CA208DF80100E3208DF84E
:1033E000020009208DF803006A460421682001F0DC
:1033F0004FFEA3208DF80000610609D5C0218DF88D
:103400000110C8218DF80210C2218DF8031005E0CB
:103410008DF801008DF802008DF8030014F4C07FD0
:1034200009D0C4218DF80410CC218DF80510C621D7
:103430008DF8061005E08DF804008DF805008DF874
:1034400006008DF808008DF807008DF809006A461F
:103450000A2140F6A72001F01BFEA0074FF0D80577
:1034600003D020208DF8000001E08DF800506A465E
:10347000012140F6B62001F00BFEA00601D5012087
:1034800000E0002000F08EF814F4C07F1ED0E005AC
:103490000AD5B2208DF800008B208DF80100B620EF
:1034A0008DF802009B2009E0B0208DF800008020FC
:1034B0008DF80100B4208DF8020090208DF80300F3
:1034C0006A46042140F6A22001F0E2FDE1074FF434
:1034D0000B6022D0F8218DF800106A46012101F01E
:1034E000D7FDFA21072000F03BFB072000F006FB88
:1034F000012000F023FB642000F0E2FB4FF4FA709F
:1035000000F0EEFBC821254800F0C0FA282000F0AA
:10351000D5FA0A2000F0E2FA05E08DF800506A467C
:10352000012101F0B5FDA00703D5D9208DF80000D9
:1035300001E08DF800506A46012140F23D7001F033
:10354000A7FD600701D5012000E0002000F048F849
:10355000E00601D5012000E00020FFF719FF104D23
:1035600044F00800688101F053FA0020A873600657
:1035700001D50620A87314F4C07F02D0A87B801D5B
:10358000A87314F0140F02D0A87B1030A873A00702
:1035900002D0A87B001DA87300203EBD09E3CA022B
:1035A000300100200EB54FF4976310B106A107C992
:1035B00001E008A207CA8DE807006A4609211846FB
:1035C00001F066FD0EBD0000B8AAB38DB4980D35AC
:1035D0005D000000B8AAAAAAB088C3C5C700000051
:1035E00008B560B1C0208DF80000C2208DF8010040
:1035F000C4208DF80200C6208DF8030004E08B2261
:1036000004216846FCF744FE6A46042140F69820EF
:1036100001F03EFD01F0FCF908BD0000C8234FF4A5
:103620008062024940F6F63001F0D4B89C5200089E
:103630002DE9FF4F89B01746DDE9165200244D4EA3
:10364000884681462C80A246B07B694601F06EF91F
:103650004FF0FF3B18B158460DB0BDE8F08F7089B0
:1036600010F0140F3ED0009909BA21F0FF029DF826
:1036700003100A433A6001999DF8073009BA21F016
:10368000FF0119437960029B9DF80B401BBA23F0A0
:10369000FF032343BB60039C121424BA24F0FF0CE5
:1036A0009DF80F4009144CEA040C1024C7F80CC014
:1036B0001B144FEA2C4712FB02F211FB012113FBF2
:1036C00003F217FB07221144A1F17061B1F1007FF1
:1036D00004D901F09DF9A5F800A0BCE7298841F4C0
:1036E000807129804206694611D50A19A41D1388E4
:1036F0005BBAA8F8003053885BBAA8F80230928809
:1037000052BAA8F804202A8842F008022A8010F44D
:10371000C07F11D00A19A41D13885BBAA9F8003024
:1037200053885BBAA9F80230928852BAA9F80420EB
:103730002A8842F070022A80800716D00C44E07874
:1037400000F0C00500F03F016078C00706D0C8084F
:1037500001F007013268491C02B190476078000708
:1037600003D5716809B1A80988470C9800F0B2FD2B
:10377000002071E7300100202DE9FF41044603A835
:1037800000F0F0FEBDF80C00410CC3032F48028985
:1037900002F00300550754F8200000D54042C2F360
:1037A000C105960654F8255000D56D42C2F3811626
:1037B000D20554F8264000D56442A0FB0367C21727
:1037C00002FB037200FB0120820042EA9670A5FB17
:1037D0000367EA1702FB037205FB0122950045EA25
:1037E0009672A4FB0367E51705FB037304FB013125
:1037F0008B0043EA9671030E8DF80030030C8DF8B0
:103800000130030A8DF802308DF80300100E8DF898
:103810000400100C8DF80500100A8DF80600080E43
:103820008DF80800080C8DF80900080A8DF80A00C8
:103830008DF807208DF80B106A460C214FF4257087
:1038400001F026FC04B0BDE8F0810000300100204A
:1038500030B5044613A285B007CA8DE807004FF0C3
:10386000FF35C82C16D8C820B0FBF4F1491E080A51
:103870008DF80C008DF80D1003AA022140F21620DD
:1038800001F006FC30B96A460C2140F6C12001F077
:10389000FFFB10B1284605B030BD054884810020EB
:1038A000F9E70000FEF2ABC4AAF1DFDFBBAFDFDF58
:1038B00030010020F8B53049098901F0030250F8C1
:1038C00022404A0700D56442C1F3C1028B0650F87A
:1038D000222000D55242C1F3811350F82330C8058D
:1038E00000D55B42254984FB0140850045EA947080
:1038F00082FB0142A40F44EA820483FB0121950F5D
:1039000045EA8105010E8DF80010010C8DF80110BB
:10391000010A8DF802108DF803006A4604214FF465
:10392000747001F0B5FB4FF0FF3688B9200E8DF8AA
:103930000000200C8DF80100200A8DF802008DF89F
:1039400003406A4604214FF4757001F0A1FB08B1F1
:103950003046F8BD280E8DF80000280C8DF80100C7
:10396000280A8DF802008DF803506A4604214FF4AE
:10397000767001F08DFBF8BD3001002009E3CA022A
:103980002DE9FF4104463CA004F0030300680290C7
:103990003AA0006803903AA006683AA0056802A819
:1039A000C15C8DF80010C4F3C101425C8DF80120A8
:1039B000C4F38112805C8DF8020003A8C35C8DF80B
:1039C0000430415C8DF80510805C8DF806006A4675
:1039D000032140F2264001F05BFB4FF0FF37E0BBD4
:1039E00001AA032140F22A4001F052FBA8BBCDE915
:1039F000006560070BD59DF8000040F001008DF8D0
:103A000000009DF8040040F001008DF80400A006BD
:103A10000BD59DF8010040F001008DF801009DF8E4
:103A2000050040F001008DF80500E0050BD59DF87C
:103A3000020040F001008DF802009DF8060040F001
:103A400001008DF806006A4603214FF4886001F0FA
:103A50001FFB10B901AA032100E004E040F231404D
:103A600001F016FB18B1384604B0BDE8F0810648F5
:103A700004810020F8E700004CCD6C000CC92C003C
:103A80003656760026466600300100204FF47A72E2
:103A900090FBF2F008B54843010E8DF80010010CC0
:103AA0008DF80110010A8DF802108DF803006A46A6
:103AB00004214FF4AE7001F0EBFA08BD0521B0FB14
:103AC000F1F008B5010A8DF800108DF801006A4682
:103AD00002214FF4AD7001F0DBFA08BD0521B0FB07
:103AE000F1F008B5010A8DF800108DF801006A4662
:103AF00002214FF4AC7001F0CBFA08BD08B50021EB
:103B00008DF80010C10702D030218DF80010810718
:103B100005D59DF8001041F00C018DF8001040070C
:103B200005D59DF8000040F003008DF800006A46BE
:103B300001214FF4A47001F0ABFA08BD08B560B1E3
:103B4000042800D90420401E8DF800006A46012197
:103B500040F24F1001F09CFA08BD0120F3E700008D
:103B600070B504462DED028B82B040074FF0FF3553
:103B70007ED0B1F5C86F7BD800EE101AB8EE400ABF
:103B8000DFED460A01A880EE208A00F0CDFC9DF80A
:103B90000400022806D0042810D0082835D01028A8
:103BA00074D13EE09FED3E0A28EE000ABCEEC00A4A
:103BB00010EE100A9FED3B0A82B20AE09FED3A0A2E
:103BC00028EE000ABCEEC00A10EE100A9FED370A7C
:103BD00082B228EE000A6E46BCEEC00A10EE100A51
:103BE00081B2100A8DF800008DF80120080A8DF8C6
:103BF00002008DF80310E00726D0324602214FF470
:103C0000EA7001F045FA98BB17E09FED290A28EE0B
:103C1000000ABCEEC00A10EE100A9FED260A82B21E
:103C2000D7E79FED250A28EE000ABCEEC00A10EE89
:103C3000100A9FED220A82B2CBE7B21C02214FF498
:103C4000927001F025FA98B9A0070DD56A460221B5
:103C50004FF4EC7001F01CFA50B9B21C02214FF481
:103C6000947001F015FA18B9600714D56A4600E09F
:103C70000CE002214FF4EE7001F00AFA30B9B21CE8
:103C800002214FF4967001F003FA20B1284602B0E9
:103C9000BDEC028B70BD0020F9E700000000484336
:103CA0000000804600004046000000460000C0457D
:103CB0000000804500004045000000450000C04471
:103CC0000521B0FBF1F008B5010A8DF800108DF860
:103CD00001006A4602214FF4EF7001F0D9F908BDE6
:103CE0000521B0FBF1F008B5010A8DF800108DF840
:103CF00001006A4602214FF4ED7001F0C9F908BDD8
:103D000082B0CDE9000121F0004001909DED000B53
:103D100002B051EC100B704713B54FF6FF73012240
:103D200069460248FDF742FD00981CBDEC000020EA
:103D30001FB50446274802AB042240680D210078D5
:103D4000FDF7A6FE10B1072004B010BD9DF80810C5
:103D50001C2000EAD1029DF80B10DFED1F0AC1F311
:103D600001131A438DF800209DF80920C1F3810347
:103D700000EAD2021A438DF801209DF80A2001F0D2
:103D8000030100EAD20008439FED141A9FED140AC4
:103D90008DF8020000216A46505C002804EB810087
:103DA00002D080ED001A09E0C0ED000A0CE000BF6F
:103DB000D0ED001A61EE801AC0ED001A535C5B1E54
:103DC00013F0FF035354F3D1491CC9B20329E3D3C1
:103DD0000020B9E710000020000000007B14AE3E78
:103DE0001D5A843F2DE9FE4F05460120C14E8DF836
:103DF00000004FF000088DF8018030680C4617462F
:103E0000817C70686B4602220078FDF7B7FE4FF0A8
:103E1000FF3A00287AD1C820FCF784FD8DF8008095
:103E200030686B460122C17B70680078FDF7A6FE02
:103E30000028EFD130686B46012241797068007824
:103E4000FDF79CFE0028E5D130686B460122817C9D
:103E500070680078FDF792FE0028DBD130686B4671
:103E60000122C17D70680078FDF788FE0028D1D15D
:103E700030686B460122017970680078FDF77EFE9C
:103E80000028C7D14FF00C098DF8009030686B46C0
:103E90000122017970680078FDF770FE002835D1A5
:103EA0000F20FCF73FFDB06A6B460122407A8DF887
:103EB00000003068817870680078FDF75FFE0028A8
:103EC00024D1B06A6B460122007A8DF80000306878
:103ED000417870680078FDF751FE002873D1B06A10
:103EE000807A0FB140F0E0008DF8000030686B463A
:103EF0000122817970680078FDF740FE002862D1C8
:103F00002FB1B06AC07A40F0E00001E04AE018202A
:103F10008DF8000030686B460122C1797068007826
:103F2000FDF72CFEF0BB17B1C820FCF7FBFC4020CE
:103F30008DF8000030686B460122017970680078C6
:103F4000FDF71CFE70BB78208DF8000030686B46D2
:103F50000122417970680078FDF710FE10BB322015
:103F6000FCF7E0FC8DF80080306847466B464179ED
:103F7000706801220078FDF701FE98B93168706819
:103F8000B046897A00786B460222FDF781FD48B978
:103F9000BDF80000AF6040BAB0FBF9F06F60C6B288
:103FA0002F6000E00FE0A76067602760002739E01E
:103FB000D8F80010D8F804006B46C97A00780C22B3
:103FC000FDF766FD10B15046BDE8FE8FBDF800005C
:103FD000236840BA02B2BDF80200BDF804101A44CA
:103FE000226040BA626800B21044606049BAA068BA
:103FF00009B20844A060BDF806002B6840BA02B2BE
:10400000BDF808001A4440BA01B2BDF80A002A609F
:104010006A6840BA11446960A96800B208447F1C0C
:10402000FFB2A860B742C3D328688322C11709042E
:1040300041EA104100040023FCF7F9F8324600235E
:10404000FCF7F5F8286068688322C117090441EA83
:10405000104100040023FCF7EAF832460023FCF785
:10406000E6F86860A8688322C117090441EA104194
:1040700000040023FCF7DBF832460023FCF7D7F8F6
:10408000A86020684FF40065C117090441EA104197
:1040900000042A460023FCF7CAF832460023FCF746
:1040A000C6F8206060682A46C117090441EA104139
:1040B00000040023FCF7BBF832460023FCF7B7F8F6
:1040C0006060A0682A46C117090441EA1041000453
:1040D0000023FCF7ACF832460023FCF7A8F8A060F8
:1040E000002802DDA0F5803001E000F58030A060FE
:1040F000002069E710000020F8B506462E480D465E
:10410000002440686B46032200780D21FDF7C0FCB7
:1041100008B10720F8BD9DF80000002200F01F0044
:104120008DF800009DF801009FED241A00F01F009B
:104130008DF801009DF802006B4600F01F008DF81D
:104140000200012156F8220055F82270C01B00D54C
:10415000404200EE100A985CB8EEC00A60EE010A18
:10416000D0B1B3EE090ADFED161A01E020EE210A04
:10417000C0B2401E10F0FF009854F7D1C0EE801A74
:10418000B7EE000A0F4F31EEC00AB0EEC00A10EED3
:10419000100AB84207DC09E010EE900A0A4F3844D2
:1041A000B0F1D97F02D901FA02F00443521C032A6C
:1041B000C8DB2046F8BD000010000020000080375A
:1041C00054E3853F295C0F3E0000E0BE00B5024687
:1041D00000F00DF80346D01C00F009F843EAC003D4
:1041E000901D00F004F843EA801080B200BD90F901
:1041F0000010002902DD4FF00000704702DA4FF096
:104200000400704790F90110002902DD4FF0010011
:10421000704702DA4FF00500704790F9020000285D
:1042200002DD4FF00200704702DA4FF006007047DF
:104230004FF007007047000088B0FCF793FDFDF7D2
:104240005BFDFDF7B9FCFDF735FDFDF70BFDFDF757
:10425000E9FCFDF7D1FB00F01BF9014612A0FDF7C8
:10426000E9FE06AA05A904A800F060F8014610A01E
:10427000FDF7E0FE0698FCF7B2F906460F460598F2
:10428000FCF7ADF904460D460498FCF7A8F98DE853
:10429000F00041EC100B08A053EC102BFDF7CAFE08
:1042A0006420FCF73FFBDCE70D0A25640D0A0000E3
:1042B00025640D0A0000000070697463683A256681
:1042C00020726F6C6C3A2566207961773A25660D0D
:1042D0000A000000704700002DE9F041124C20F068
:1042E0000101002594F8240010B10020BDE8F08100
:1042F000A07A4FF0FF3668B10840277C20748842CE
:1043000000D0354641B1012000F030FF00F080FBC5
:1043100038B127743046E9E7207D00B1012000F074
:1043200025FF2846E2E700001000002070B50D468A
:104330002DED0C8B8EB006460CA902A81446F7EEA4
:1043400000BACDE900010BAB03AA09A907A8FFF742
:104350006FF920B101200EB0BDEC0C8B70BDBDF823
:104360000800C0057ED59DED030AF8EEC00A9FED5A
:10437000450AB0EE00CA60EE809ADDED040AF8EE60
:10438000E00A69EE8CCA20EE808ADDED050AF8EEBF
:10439000E00A60EE808ADDED060AF8EEE00A20EE23
:1043A000809AB8EE000A28EE00BA2BEE090A0CEE4D
:1043B000A80A10EE100AFCF712F941EC100BFDF7F9
:1043C00073FE9FED31AB51EC100B53EC1A2BFCF745
:1043D00025F8FCF717F92BEE080A28EE8CDA306086
:1043E0000DEE680A30EE2B0A10EE100AFCF7F7F813
:1043F0002DEE090A41EC1B0B0CEE880A10EE100A98
:10440000FCF7EDF841EC100BB0EE4B1AF0EE6B1A26
:10441000FEF766F953EC1A2B51EC100BFBF7FEFF7D
:10442000FCF7F0F829EEA90A286008EE080A08EE61
:10443000E80A09EE490A10EE100AFCF7D0F828EE57
:10444000280A41EC1B0B09EE890A20EE0C0A10EE3B
:10445000100AFCF7C4F841EC100BB0EE4B1AF0EE6A
:104460006B1A00E00CE0FEF73BF953EC1A2B51EC11
:10447000100BFBF7D3FFFCF7C5F8206000206AE7BC
:10448000022068E7000080306666666666A64C40DB
:1044900010B500F0F3F808B10A2010BD782000F044
:1044A0009BFD10F0FF0F01D0012010BD7820FFF719
:1044B00013FF10F0FF0F01D0022010BDC82000F044
:1044C0004BFD10F0FF0F01D0032010BDFFF7A6F841
:1044D00010F0FF0F01D0042010BD1248FFF776FE48
:1044E000FFF74EFA10F0FF0F01D0052010BD40F28B
:1044F0007310FEF76BFF10F0FF0F01D0062010BD08
:10450000C820FFF7A5F910F0FF0F01D0072010BD5C
:1045100000F0E8FD012000F045FC10F0FF00F6D0AF
:10452000092010BD3C0000200D494A7A42B1012A01
:1045300008D0022A0FD0032A0FD04FF0FF30704767
:10454000022200E004220270C97C11B11106C90DDB
:104550000170002070470822F5E71022F3E7000001
:10456000100000200F494A7A42B1012A09D0022ADC
:1045700011D0032A12D04FF0FF3070474FF4804221
:1045800001E041F69C720280C97C11B1C2F34E0178
:104590000180002070474FF48052F4E74FF400622E
:1045A000F1E70000100000200B49097A39B1012918
:1045B00007D002290AD003290BD0002103E0FA21F9
:1045C00001E04FF4FA710180002070474FF47A71D6
:1045D000F9E74FF4FA61F6E7100000200D49097A77
:1045E00041B1012909D002290DD003290ED04FF085
:1045F000FF3070479FED080A01E09FED080A80ED4B
:10460000000A002070479FED060AF8E79FED050AB3
:10461000F5E7000010000020000003430000834283
:1046200033330342333383410C49C97A072913D208
:10463000DFE801F01204060A0C0E1000BC2100E0B5
:1046400062210180002070472A21FAE71421F8E74F
:104650000A21F6E70521F4E70021F2E71000002027
:10466000054991F8242012B14FF0FF307047C989F5
:104670000180002070470000100000202DE9FC415F
:104680004A4C80208DF8000020686B460122817C16
:1046900060680078FDF772FA4FF0FF3700287CD190
:1046A0006420FCF73FF900258DF8005020686B4628
:1046B0000122817C60680078FDF760FA00286CD1E7
:1046C00020686B460622817D60680078FDF7E0F97E
:1046D000002862D19DF805009DF80310C007400F27
:1046E00001F0010140EA41009DF801104FF0010680
:1046F00001F00101084305D0012801D0022811D0A2
:10470000E67410E020686B460122C178606800788A
:10471000FDF7BEF940BB9DF8000010F00F0020D05F
:10472000042822D0E574FF2004F80A0F4FF6FF7129
:1047300004F8020C04F8010C6070A180A0712072D2
:10474000A67026766576E572A572E56025616561DD
:10475000A576E576A5834FF4FA6000F05FFB18B903
:1047600007E01348FDF766FC17E012A0FDF762FCB6
:10477000C6E7022000F074FA78B92A2000F0B6FBF0
:1047800058B9322000F0E8FB38B90020FFF7A4FD4B
:1047900018B9002000F098FA10B13846BDE8FC8145
:1047A000002000F019FC0020F8E7000010000020B5
:1047B000885F000848616C662073656E7369746970
:1047C00076697479207061727420666F756E642EDC
:1047D0000A0000002DE9FF4FDFF89480064685B0FF
:1047E00098F8250015460F464FF0FF39B0BBAFB320
:1047F000002420E0301B102800DD102080B283460A
:104800003A1901469246204600F042FC30BB6A4607
:104810005946204600F0D2F800BB50465A46694639
:10482000FBF748FD20B16FF0010009B0BDE8F08F43
:1048300004EB0B0084B2B442DCD3280A8DF81000DC
:104840008DF81150D8F80000444604AB817ED8F8AA
:10485000040002220078FDF791F908B14846E4E728
:10486000012084F825000898E0840020DDE700009E
:10487000100000202DE9F84305464FF0FF392828A5
:1048800044D80727284C00267DB1012000F0FCFA0F
:1048900020208DF800004FF00108012D17D0052DC4
:1048A00018D88DF8018005201FE0002000F0ECFAF8
:1048B0008DF800608DF8017020686B460222817CC3
:1048C00060680078FDF75AF900BB267529E08DF87D
:1048D0000160E8E7142D04D802208DF801000A20B9
:1048E00003E003208DF80100142000F0FFFA9DF88A
:1048F00001006B4607EB80108DF801002068022252
:10490000817C60680078FDF739F910B14846BDE850
:10491000F8830820A072267384F814800020FFF723
:10492000DBFC0020F3E70000100000202DE9F84335
:10493000214C0646174694F8240089464FF0FF386C
:1049400090B3A07A80B320686B460222817A6068B7
:104950000078FDF79DF838BBBDF8000045BAB542B8
:1049600002D2002038701FE060684188B5EB510F1B
:1049700011D9216800786B46497C0122FDF788F83F
:1049800090B99DF80000C00605D500F041F86FF021
:104990000100BDE8F8832068F2B24B46C17A606836
:1049A0000078FDF775F808B14046F2E7B5FBF6F080
:1049B000401E38700020ECE710000020F8B516000B
:1049C0000D464FF0FF371FD0104CA17AE1B1010A1C
:1049D0008DF80010C0B28DF801004119606842895D
:1049E000914211D8216800786B46097E0222FDF7BA
:1049F000C5F848B92068EAB23346417D606800785E
:104A0000FDF746F8002800D03846F8BD1000002019
:104A1000F8B5564C4FF0FF36A07A00287DD000251F
:104A20008DF8005020686B460122C17B60680078D9
:104A3000FDF7A4F8002870D120686B460122417967
:104A400060680078FDF79AF8002866D120686B4608
:104A50000122017960680078FDF790F800285CD1A8
:104A600094F82400E0B30C208DF8000020686B4619
:104A70000122017960680078FDF780F8002872D182
:104A80003220FBF74FFFC0208DF80000A07AC0074E
:104A900002D0E0208DF8000020686B4601220179E9
:104AA00060680078FDF76AF800285CD1607C18B176
:104AB00002208DF8000001E08DF8005020686B4660
:104AC0000122C17B60680078FDF758F828BB8DF89B
:104AD000005020686B4601224179606800783EE012
:104AE000FFE704208DF8000020686B460122017961
:104AF00060680078FDF742F878B9A07C90B9A07A98
:104B0000C0070FD05FF060008DF8000020686B4692
:104B1000012201796068007800E024E0FDF72EF8BA
:104B200008BB01E04020EFE73220FBF7FBFE607C92
:104B300018B101208DF8000001E08DF800502068C8
:104B40006B460122C17B60680078FDF717F850B909
:104B50002068064B01224179606810330078FDF728
:104B60000DF8002800D03046F8BD000010000020ED
:104B70002DE9F047394C82468AB094F824000F465C
:104B800020B1002000F00EF9012600E0002607A861
:104B9000FFF70AFD06A8FFF7C7FC09A8FFF744FDC9
:104BA00008A8FFF75DFD94F80A9094F8108000259E
:104BB000002239465046FFF715F910B16D1C022D41
:104BC000F6DB022D1AD00025012203A96846FFF763
:104BD00009F910B16D1C022DF6DB022D0ED003A9D0
:104BE0003846FEF785FBC7B269465046FFF784FAA0
:104BF00010F0FF0F4FF0000502D002E0002503E0A7
:104C000001250FB945F00205FF2020726072E072A5
:104C10004FF6FF71E181A072207401202073BDF86E
:104C20001C0000F0FBF89DF8180000F019F8BDF822
:104C3000240000F05BF9BDF8200000F08DF9484633
:104C400000F0CAF94046FFF747FB16B1012000F01B
:104C5000A9F80AB02846BDE8F0870000100000203F
:104C600038B5184C4FF0FF35A17A19B3022806D099
:104C7000042806D008280ED010281BD10DE00020F3
:104C800000E008208DF80000607A9DF80010B0EB7D
:104C9000D10F04D005E01020F4E71820F2E700203F
:104CA00038BD20686B460122C17960680078FCF746
:104CB00065FF08B1284638BD9DF80000C008607245
:104CC000EDE7000010000020F8B5354C0546A07C4B
:104CD000A84201D10020F8BD31484FF0FF366B46A5
:104CE000D0E900104FF001020979007835B3FCF7E4
:104CF000CFFE70BB9DF800006B4620F020008DF8C1
:104D0000000020680122017960680078FCF736FF16
:104D1000F8B90320FBF706FE02208DF8000094F896
:104D2000220078B382202BE020686B460122017DAF
:104D300060680078FCF722FF58B92EE0FCF7A8FE67
:104D400038B9A07AC0079DF8000003D040F02000D9
:104D500002E00CE020F020008DF8000020686B4697
:104D60000122017960680078FCF708FF08B130463D
:104D7000F8BD0320FBF7D6FD94F8220000B1802097
:104D80008DF8000094F823000028CDD09DF8000095
:104D900040F030008DF80000C6E7A5749AE70000E7
:104DA0001000002038B51C4C94F8241081421DD00E
:104DB000002500B394F82500D0B1002000F0D6F90A
:104DC0000020FFF781FFE08C00F0C6F88DF800505E
:104DD00060686B46012200782321FCF7CFFE01209A
:104DE00084F8240000F0C2F9FFF712FE002038BD5D
:104DF0004FF0FF3038BD002000F0B8F9207C8DF86E
:104E0000000060686B46012200782321FCF7B6FEA3
:104E100084F82450E8E700001000002038B5194C51
:104E20004FF0FF35A17A31B3FA2809D0B0F5FA7FF7
:104E300008D0B0F57A7F0FD0B0F5FA6F1BD10DE036
:104E4000002000E008208DF80000207A9DF8001076
:104E5000B0EBD10F04D005E01020F4E71820F2E702
:104E6000002038BD20686B46012281796068007897
:104E7000FCF784FE08B1284638BD9DF80000C00844
:104E80002072EDE71000002038B5174C054694F865
:104E90002300A84201D1002038BD0DB1302000E030
:104EA00000208DF80000A07C28B19DF8000040F0A3
:104EB00002008DF8000094F8220028B19DF800004F
:104EC00040F080008DF8000020686B460122017DD3
:104ED00060680078FCF752FE10B14FF0FF3038BD2B
:104EE00084F82350D7E700001000002038B5194C93
:104EF0004FF0FF35A17A31B3BC2801D3012010E077
:104F0000622801D302200CE02A2801D3032008E004
:104F1000142801D3042004E00A2801D3052000E06E
:104F200006208DF80000E07A9DF80010884201D13B
:104F3000002038BD20686B460122817860680078C7
:104F4000FCF71CFE08B1284638BD9DF80000E07251
:104F5000EEE7000010000020F8B51E4D04464FF0AB
:104F6000FF37A87A48B395F8240030BB287D4FF46A
:104F70007A7648B164B1282C03D8E0B2FFF77AFC06
:104F800026E00020FFF776FC042C05D2042406E07E
:104F90000020FFF76FFCF9E7B44200D93446B6FBB6
:104FA000F4F0401E8DF8000028686B46012241781D
:104FB00068680078FCF7E2FD08B13846F8BD9DF856
:104FC0000000401CB6FBF0F0E8814008FFF78EFFC0
:104FD0000020F8BD10000020F8B5054610F0700F55
:104FE0004FF0000601D0012004E015B18DF80060FB
:104FF00002E040208DF80000244C6B46012220681E
:10500000817C60680078FCF7B9FD4FF0FF3760BB2A
:105010009DF8000020F0400020738DF800606806C5
:1050200002D404208DF80000A80605D49DF80000E5
:1050300040F002008DF80000E80605D49DF800005D
:1050400040F001008DF80000280705D49DF800000D
:1050500040F038008DF8000020686B460122C17CCA
:1050600060680078FCF78AFD10B1A6723846F8BD7A
:1050700025B1082D02D00020FFF706FFA572267586
:105080003220FBF74FFC0020F8BD0000100000208C
:10509000F8B516000D464FF0FF371FD0104CA17A1F
:1050A000E1B1010A8DF80010C0B28DF8010041197C
:1050B00060684289914211D8216800786B46097E68
:1050C0000222FCF75BFD48B92068EAB23346417D15
:1050D00060680078FCF752FD002800D03846F8BD23
:1050E0001000002000B589B002A905A8FFF740FD17
:1050F000072802D0012009B000BD6846FFF76EFA0C
:105100009DED050A05A8F8EEC00A9DED000A60EEC7
:10511000800AFDEEE00ACDED050ADDED060AF8EEA7
:10512000E00A60EE800AFDEEE00ACDED060ADDED54
:10513000070AF8EEE00A20EE800ABDEEC00A8DED07
:10514000070AFEF7B7FB01A8FFF70CFABDF8040049
:1051500002994143029103994143039104994143C8
:1051600002A80491FEF708FB0020C4E7F8B5144C30
:105170000146224694F82460D2E9000200235D1E15
:1051800056B179B1022111E0C17B10786B46012242
:10519000FCF7F4FC68B90EE0A67A56B111B1617C57
:1051A00061B902E08DF80030EEE701218DF80010C2
:1051B000EAE72846F8BD9DF8000060740020F8BDBD
:1051C0001000002000B52DED048B83B041EC190BCD
:1051D000FBF752FB41EC180B18EE100A18EE901A70
:1051E0008DED008B002818BF0120084320F00040FF
:1051F000C0F17F6000F1E040C00F14D019EE101A2A
:1052000019EE900A8DED009B002918BF012108437B
:1052100020F00040C0F17F6000F1E040C00F04BF0B
:105220000120FDF715FC51EC180B03B0BDEC048B0D
:1052300000BD00000000000000000102030406079A
:105240000809000000000102030475191A0C6A2302
:105250001B1C1F207274433B4138393A6B6C376F0B
:1052600006246D6E70006800000476005401F7FD9E
:105270000001000083000000000800000001001889
:1052800032000500000020410000D242295C0F3EA0
:105290009A99993E3333733F295C0F3E00007000AA
:1052A000000000240000000200030000006500541C
:1052B000FFEF0000FA80000B12820001030C30C3E4
:1052C0000E8C8CE914D5400213710F8E3883F8834D
:1052D0003000F883258EF8833000F883FFFFFFFF4E
:1052E0000FFEA9D6240004001A8279A10000003C18
:1052F000FFFF00000010000038836FA2003E033063
:105300004000000002CAE3093E80000020000000C7
:10531000000000004000000060000000000C0000E1
:10532000000C186E000006920A16C0DFFFFF02563E
:10533000FD8CD377FFE1C496E0C5BEAA0000000053
:10534000FFFF0B2B00001657000003594000000020
:1053500000001DFA00026C1D000000003FFFDFEBA3
:10536000003EB3B6000D227800002F3C0000000084
:10537000001942B5000039A20000B365D90E9FC9DB
:105380001DCF4C3430000000500000003BB67AE8DE
:105390000064000000C800000000000010000000D1
:1053A0001000FA921000225E000D229F0001000002
:1053B00000320000FF46000063D40000100000002F
:1053C00004D6000004CC000004CC000000001072E1
:1053D0000000004000000000000000000006000285
:1053E000000500070000000000640000000000004D
:1053F000000000050005006400200000000000001F
:105400000000000000004000000003000000003227
:10541000F8980000FF650000830F0000FF9BFC0070
:10542000000000000000000000000000000000007C
:10543000000000000000000000000000000000006C
:10544000000000000000000000001000400000000C
:10545000000000060000B26A000200000001FB83A9
:105460000068000000D9FC007CF1FF830000000010
:1054700000650000006403E80064002800000025C7
:105480000000000016A00000000010000000100046
:10549000002F0000000001F40000100000280000B0
:1054A000FFFF4581FFFFFA720000000000000000CE
:1054B000004400050005BAC6004778A200000001BC
:1054C0000000000000000600000000140000254D50
:1054D000002F706D000005AE000C02D0000000002F
:1054E000000000000000000000000000001B0000A1
:1054F0000000000000000000000000000064000048
:105500000008000000000000000000000000000093
:10551000000000000000000000000000000000008B
:10552000000000000000000000000000000000007B
:10553000000000000000000000000000000000006B
:10554000000000000000000000000000000000005B
:10555000000000000000000000000000001B000030
:105560000000000000000000000E000E00000AC74E
:105570000004000000000032FFFFFF9C00000B2B26
:10558000000000020000000100000064FFE50000D0
:10559000000000000000000000000000000000010A
:1055A0000000000000010000000000000001800079
:1055B0000001800000018000002426D300000000CC
:1055C00000000000000600100096003C00000000F3
:1055D0000000000000000000000000000C0A4E68FF
:1055E000CDCF770950166759C619CE82000000004A
:1055F00000000000000000000000000000000000AB
:105600000000000017D78400030000000000000025
:1056100000000000C7938F9D1E1B1C190000000096
:10562000000000000000000000000000000000007A
:105630000000000002031885000040000000000385
:105640000000000300000000000000004000000017
:10565000000000000000000000000000000000004A
:10566000000000000000000000000000000000003A
:10567000000000000000000000000000000000002A
:10568000677DDF7E72902E554CF6E68800000000A4
:10569000000000000000000000000000D8DCB4B8EA
:1056A000B0D8B9ABF3F8FAB3B7BB8E9EAEF132F512
:1056B0001BF1B4B8B08097F1A9DFDFDFAADFDFDF2D
:1056C000F2AAC5CDC7A90CC92C97F1A989264666AF
:1056D000B28999A92D557DB0B08AA896365676F133
:1056E000BAA3B4B280C0B8A89711B28398BAA3F095
:1056F000240844106418B2B9B49883F1A329557DE5
:10570000BAB5B1A38393F0002850F5B2B6AA83933B
:1057100028547CF1B9A3829361BAA2DADEDFDB817F
:105720009AB9AEF5606870F1DABAA2DFD9BAA2FA16
:10573000B9A38292DB31BAA2D9BAA2F8DF85A4D08C
:10574000C1BBAD83C2C5C7B8A2DFDFDFBAA0DFDF50
:10575000DFD8D8F1B8AAB38DB4980D355DB2B6BA1A
:10576000AF8C96198F9FA70E161EB49AB8AA872CD5
:10577000547CBAA4B08AB691325676B28494A4C846
:1057800008CDD8B8B4B0F19982A82D557D98A80E4F
:10579000161EA22C547C92A4F02C5078F184A89868
:1057A000C4CDFCD80DDBA8FC2DF3D9BAA6F8DABA23
:1057B000A6DED8BAB2B68696A6D0F3C841DAA6C895
:1057C000F8D8B0B4B882A892F52C548898F135D99D
:1057D000F418D8F1A2D0F8F9A884D9C7DFF8F88373
:1057E000C5DADF69DF83C1D8F40114F1A8824EA8BD
:1057F00084F311D182F5D992289788F109F41C1C01
:10580000D884A8F3C0F9D1D99782F129F40DD8F33F
:10581000F9F9D1D982F4C203D8DEDF1AD8F1A2FA9D
:10582000F9A88498D9C7DFF8F8F883C7DADF69DF09
:10583000F883C3D8F40114F198A8822EA884F31138
:10584000D182F5D992509788F109F41CD884A8F335
:10585000C0F8F9D1D99782F149F40DD8F3F9F9D10B
:10586000D982F4C403D8DEDFD8F1AD8898CCA8097A
:10587000F9D98292A8F57CF1883ACF944A6E98DBE8
:105880006931DAADF2DEF9D88795A8F221D1DAA52F
:10589000F9F417D9F1AE8ED0C0C3AE82C684C3A8C6
:1058A0008595C8A588F2C0F1F4010EF18E9EA8C6B8
:1058B0003E56F554F18872F40115F19845856EF560
:1058C0008E9E0488F142985A8E9E068869F4011CC7
:1058D000F1981E1108D0F504F11E970202983625A2
:1058E000DBF9D985A5F3C1DA85A5F3DFD88595A8BD
:1058F000F309DAA5FAD88292A8F578F1881A849F7C
:1059000026889821DAF41DF3D8879F39D1AFD9DFE3
:10591000DFFBF9F40CF3D8FAD0F8DAF9F9D0DFD9D3
:10592000F9D8F40BD8F3879F39D1AFD9DFDFF41D55
:10593000F3D8FAFCA869F9F9AFD0DADEFAD9F88F12
:105940009FA8F1CCF398DB45D9AFDFD0F8D8F18F21
:105950009FA8CAF38809DAAF8FCBF8D8F2AD978D3C
:105960000CD9A5DFF9BAA6F3FAF412F2D8950DD145
:10597000D9BAA6F3FADAA5F2C1BAA6F3DFD8F1BA1A
:10598000B2B68696A6D0CAF349DAA6CBF8D8B0B498
:10599000B8D8AD84F2C0DFF18FCBC3A8B2B686967B
:1059A000C8C1CBC3F3B0B48898A821DB718D9D71B9
:1059B000859521D9ADF2FAD88597A828D9F408D8C9
:1059C000F28D29DAF405D9F285A4C2F2D8A88D9413
:1059D00001D1D9F411F2D88721D8F40AD8F28498E9
:1059E000A8C801D1D9F411D8F3A4C8BBAFD0F2DE56
:1059F000F8F8F8F8F8F8F8F8D8F1B8F6B5B9B08AC8
:105A000095A3DE3CA3D9F8D85CA3D9F8D87CA3D958
:105A1000F8D8F8F9D1A5D9DFDAFAD8B18530F7D9B5
:105A2000DED8F830ADDADED8F2B48C99A32D557DEE
:105A3000A083DFDFDFB591A0F629D9FBD8A0FC2930
:105A4000D9FAD8A0D051D9F8D8FC51D9F9D879D9F8
:105A5000FBD8A0D0FC79D9FAD8A1F9F9F9F9F9A0C5
:105A6000DADFDFDFD8A1F8F8F8F8F8ACDEF8ADDE61
:105A70008393AC2C547CF1A8DFDFDFF69D2CDAA0F9
:105A8000DFD9FADB2DF8D8A850DAA0D0DED9D0F8CB
:105A9000F8F8DB55F8D8A878DAA0D0DFD9D0FAF832
:105AA000F8F8F8DB7DF8D89CA88CF530DB38D9D035
:105AB000DEDFA0D0DEDFD8A848DB58D9DFD0DEA0FB
:105AC000DFD0DED8A868DB70D9DFDFA0DFDFD8F158
:105AD000A888902C547C98A8D05C38D1DAF2AE8C8F
